{"abi":[{"type":"constructor","inputs":[],"stateMutability":"nonpayable"},{"type":"function","name":"approve","inputs":[{"name":"to","type":"address","internalType":"address"},{"name":"tokenId","type":"uint256","internalType":"uint256"}],"outputs":[],"stateMutability":"nonpayable"},{"type":"function","name":"balanceOf","inputs":[{"name":"owner","type":"address","internalType":"address"}],"outputs":[{"name":"","type":"uint256","internalType":"uint256"}],"stateMutability":"view"},{"type":"function","name":"burn","inputs":[{"name":"tokenId","type":"uint256","internalType":"uint256"}],"outputs":[],"stateMutability":"nonpayable"},{"type":"function","name":"getApproved","inputs":[{"name":"tokenId","type":"uint256","internalType":"uint256"}],"outputs":[{"name":"","type":"address","internalType":"address"}],"stateMutability":"view"},{"type":"function","name":"isApprovedForAll","inputs":[{"name":"owner","type":"address","internalType":"address"},{"name":"operator","type":"address","internalType":"address"}],"outputs":[{"name":"","type":"bool","internalType":"bool"}],"stateMutability":"view"},{"type":"function","name":"mintByAuthority","inputs":[{"name":"to","type":"address","internalType":"address"},{"name":"tokenId","type":"uint256","internalType":"uint256"},{"name":"score","type":"uint256","internalType":"uint256"}],"outputs":[],"stateMutability":"nonpayable"},{"type":"function","name":"name","inputs":[],"outputs":[{"name":"","type":"string","internalType":"string"}],"stateMutability":"view"},{"type":"function","name":"ownerOf","inputs":[{"name":"tokenId","type":"uint256","internalType":"uint256"}],"outputs":[{"name":"","type":"address","internalType":"address"}],"stateMutability":"view"},{"type":"function","name":"safeTransferFrom","inputs":[{"name":"from","type":"address","internalType":"address"},{"name":"to","type":"address","internalType":"address"},{"name":"tokenId","type":"uint256","internalType":"uint256"}],"outputs":[],"stateMutability":"nonpayable"},{"type":"function","name":"safeTransferFrom","inputs":[{"name":"from","type":"address","internalType":"address"},{"name":"to","type":"address","internalType":"address"},{"name":"tokenId","type":"uint256","internalType":"uint256"},{"name":"data","type":"bytes","internalType":"bytes"}],"outputs":[],"stateMutability":"nonpayable"},{"type":"function","name":"scores","inputs":[{"name":"","type":"uint256","internalType":"uint256"}],"outputs":[{"name":"","type":"uint256","internalType":"uint256"}],"stateMutability":"view"},{"type":"function","name":"setApprovalForAll","inputs":[{"name":"operator","type":"address","internalType":"address"},{"name":"approved","type":"bool","internalType":"bool"}],"outputs":[],"stateMutability":"nonpayable"},{"type":"function","name":"submitScore","inputs":[{"name":"tokenId","type":"uint256","internalType":"uint256"},{"name":"score","type":"uint256","internalType":"uint256"},{"name":"gameplay","type":"bytes","internalType":"bytes"}],"outputs":[],"stateMutability":"nonpayable"},{"type":"function","name":"supportsInterface","inputs":[{"name":"interfaceId","type":"bytes4","internalType":"bytes4"}],"outputs":[{"name":"","type":"bool","internalType":"bool"}],"stateMutability":"view"},{"type":"function","name":"symbol","inputs":[],"outputs":[{"name":"","type":"string","internalType":"string"}],"stateMutability":"view"},{"type":"function","name":"tokenURI","inputs":[{"name":"tokenId","type":"uint256","internalType":"uint256"}],"outputs":[{"name":"","type":"string","internalType":"string"}],"stateMutability":"view"},{"type":"function","name":"topScores","inputs":[{"name":"","type":"uint256","internalType":"uint256"}],"outputs":[{"name":"","type":"uint256","internalType":"uint256"}],"stateMutability":"view"},{"type":"function","name":"transferFrom","inputs":[{"name":"from","type":"address","internalType":"address"},{"name":"to","type":"address","internalType":"address"},{"name":"tokenId","type":"uint256","internalType":"uint256"}],"outputs":[],"stateMutability":"nonpayable"},{"type":"event","name":"Approval","inputs":[{"name":"owner","type":"address","indexed":true,"internalType":"address"},{"name":"approved","type":"address","indexed":true,"internalType":"address"},{"name":"tokenId","type":"uint256","indexed":true,"internalType":"uint256"}],"anonymous":false},{"type":"event","name":"ApprovalForAll","inputs":[{"name":"owner","type":"address","indexed":true,"internalType":"address"},{"name":"operator","type":"address","indexed":true,"internalType":"address"},{"name":"approved","type":"bool","indexed":false,"internalType":"bool"}],"anonymous":false},{"type":"event","name":"Transfer","inputs":[{"name":"from","type":"address","indexed":true,"internalType":"address"},{"name":"to","type":"address","indexed":true,"internalType":"address"},{"name":"tokenId","type":"uint256","indexed":true,"internalType":"uint256"}],"anonymous":false}],"bytecode":{"object":"0x60806040523480156200001157600080fd5b50604051806040016040528060078152602001667a6b536e616b6560c81b81525060405180604001604052806005815260200164534e414b4560d81b8152508160009081620000619190620001d3565b506001620000708282620001d3565b50600a91506200007d9050565b604051908082528060200260200182016040528015620000a7578160200160208202803683370190505b508051620000be91600791602090910190620000c5565b506200029f565b82805482825590600052602060002090810192821562000103579160200282015b8281111562000103578251825591602001919060010190620000e6565b506200011192915062000115565b5090565b5b8082111562000111576000815560010162000116565b634e487b7160e01b600052604160045260246000fd5b600181811c908216806200015757607f821691505b6020821081036200017857634e487b7160e01b600052602260045260246000fd5b50919050565b601f821115620001ce576000816000526020600020601f850160051c81016020861015620001a95750805b601f850160051c820191505b81811015620001ca57828155600101620001b5565b5050505b505050565b81516001600160401b03811115620001ef57620001ef6200012c565b620002078162000200845462000142565b846200017e565b602080601f8311600181146200023f5760008415620002265750858301515b600019600386901b1c1916600185901b178555620001ca565b600085815260208120601f198616915b8281101562000270578886015182559484019460019091019084016200024f565b50858210156200028f5787850151600019600388901b60f8161c191681555b5050505050600190811b01905550565b611e9c80620002af6000396000f3fe608060405234801561001057600080fd5b50600436106101165760003560e01c80636352211e116100a2578063b88d4fde11610071578063b88d4fde14610253578063c4808c5b14610266578063c87b56dd14610279578063e985e9c51461028c578063f2c0a29a1461029f57600080fd5b80636352211e1461021257806370a082311461022557806395d89b4114610238578063a22cb4651461024057600080fd5b806323b872dd116100e957806323b872dd146101985780632ee691a3146101ab57806342842e0e146101d957806342966c68146101ec5780635112711a146101ff57600080fd5b806301ffc9a71461011b57806306fdde0314610143578063081812fc14610158578063095ea7b314610183575b600080fd5b61012e6101293660046113bf565b6102b2565b60405190151581526020015b60405180910390f35b61014b610304565b60405161013a9190611433565b61016b610166366004611446565b610396565b6040516001600160a01b03909116815260200161013a565b61019661019136600461147b565b6103bd565b005b6101966101a63660046114a5565b6104d7565b6101cb6101b9366004611446565b60066020526000908152604090205481565b60405190815260200161013a565b6101966101e73660046114a5565b610509565b6101966101fa366004611446565b610524565b6101cb61020d366004611446565b610555565b61016b610220366004611446565b610576565b6101cb6102333660046114e1565b6105d6565b61014b61065c565b61019661024e3660046114fc565b61066b565b6101966102613660046115db565b61067a565b610196610274366004611643565b6106b2565b61014b610287366004611446565b6106d7565b61012e61029a366004611676565b6108fb565b6101966102ad3660046116a9565b610929565b60006001600160e01b031982166380ac58cd60e01b14806102e357506001600160e01b03198216635b5e139f60e01b145b806102fe57506301ffc9a760e01b6001600160e01b03198316145b92915050565b606060008054610313906116f9565b80601f016020809104026020016040519081016040528092919081815260200182805461033f906116f9565b801561038c5780601f106103615761010080835404028352916020019161038c565b820191906000526020600020905b81548152906001019060200180831161036f57829003601f168201915b5050505050905090565b60006103a182610934565b506000908152600460205260409020546001600160a01b031690565b60006103c882610576565b9050806001600160a01b0316836001600160a01b03160361043a5760405162461bcd60e51b815260206004820152602160248201527f4552433732313a20617070726f76616c20746f2063757272656e74206f776e656044820152603960f91b60648201526084015b60405180910390fd5b336001600160a01b0382161480610456575061045681336108fb565b6104c85760405162461bcd60e51b815260206004820152603d60248201527f4552433732313a20617070726f76652063616c6c6572206973206e6f7420746f60448201527f6b656e206f776e6572206f7220617070726f76656420666f7220616c6c0000006064820152608401610431565b6104d28383610993565b505050565b6104e2335b82610a01565b6104fe5760405162461bcd60e51b815260040161043190611733565b6104d2838383610a60565b6104d28383836040518060200160405280600081525061067a565b61052d336104dc565b6105495760405162461bcd60e51b815260040161043190611733565b61055281610bc4565b50565b6007818154811061056557600080fd5b600091825260209091200154905081565b6000818152600260205260408120546001600160a01b0316806102fe5760405162461bcd60e51b8152602060048201526018602482015277115490cdcc8c4e881a5b9d985b1a59081d1bdad95b88125160421b6044820152606401610431565b60006001600160a01b0382166106405760405162461bcd60e51b815260206004820152602960248201527f4552433732313a2061646472657373207a65726f206973206e6f7420612076616044820152683634b21037bbb732b960b91b6064820152608401610431565b506001600160a01b031660009081526003602052604090205490565b606060018054610313906116f9565b610676338383610c59565b5050565b6106843383610a01565b6106a05760405162461bcd60e51b815260040161043190611733565b6106ac84848484610d27565b50505050565b6106bc8383610d5a565b60008281526006602052604090208190556104d28282610ee5565b60606106e282610934565b60408051600480825260a08201909252600091816020015b60608152602001906001900390816106fa5790505090506040518060400160405280601d81526020017f646174613a6170706c69636174696f6e2f6a736f6e3b6261736536342c0000008152508160008151811061075a5761075a611780565b602002602001018190525060006107836006600086815260200190815260200160002054610fd8565b905061078e84610fd8565b816040516020016107a09291906117b2565b604051602081830303815290604052826001815181106107c2576107c2611780565b60200260200101819052506107f781826040516020016107e3929190611990565b60405160208183030381529060405261106b565b8260028151811061080a5761080a611780565b602002602001018190525060405180604001604052806002815260200161227d60f01b8152508260038151811061084357610843611780565b602002602001018190525060008260008151811061086357610863611780565b60200260200101516108d18460018151811061088157610881611780565b60200260200101518560028151811061089c5761089c611780565b6020026020010151866003815181106108b7576108b7611780565b60200260200101516040516020016107e393929190611c37565b6040516020016108e2929190611c7a565b60408051601f1981840301815291905295945050505050565b6001600160a01b03918216600090815260056020908152604080832093909416825291909152205460ff1690565b6104d23384846106b2565b6000818152600260205260409020546001600160a01b03166105525760405162461bcd60e51b8152602060048201526018602482015277115490cdcc8c4e881a5b9d985b1a59081d1bdad95b88125160421b6044820152606401610431565b600081815260046020526040902080546001600160a01b0319166001600160a01b03841690811790915581906109c882610576565b6001600160a01b03167f8c5be1e5ebec7d5bd14f71427d1e84f3dd0314c0f7b2291e5b200ac8c7c3b92560405160405180910390a45050565b600080610a0d83610576565b9050806001600160a01b0316846001600160a01b03161480610a345750610a3481856108fb565b80610a585750836001600160a01b0316610a4d84610396565b6001600160a01b0316145b949350505050565b826001600160a01b0316610a7382610576565b6001600160a01b031614610a995760405162461bcd60e51b815260040161043190611ca9565b6001600160a01b038216610afb5760405162461bcd60e51b8152602060048201526024808201527f4552433732313a207472616e7366657220746f20746865207a65726f206164646044820152637265737360e01b6064820152608401610431565b826001600160a01b0316610b0e82610576565b6001600160a01b031614610b345760405162461bcd60e51b815260040161043190611ca9565b600081815260046020908152604080832080546001600160a01b03199081169091556001600160a01b0387811680865260038552838620805460001901905590871680865283862080546001019055868652600290945282852080549092168417909155905184937fddf252ad1be2c89b69c2b068fc378daa952ba7f163c4a11628f55a4df523b3ef91a4505050565b6000610bcf82610576565b9050610bda82610576565b600083815260046020908152604080832080546001600160a01b03199081169091556001600160a01b0385168085526003845282852080546000190190558785526002909352818420805490911690555192935084927fddf252ad1be2c89b69c2b068fc378daa952ba7f163c4a11628f55a4df523b3ef908390a45050565b816001600160a01b0316836001600160a01b031603610cba5760405162461bcd60e51b815260206004820152601960248201527f4552433732313a20617070726f766520746f2063616c6c6572000000000000006044820152606401610431565b6001600160a01b03838116600081815260056020908152604080832094871680845294825291829020805460ff191686151590811790915591519182527f17307eab39ab6107e8899845ad3d59bd9653f200f220920489ca2b5937696c31910160405180910390a3505050565b610d32848484610a60565b610d3e848484846111d0565b6106ac5760405162461bcd60e51b815260040161043190611cee565b6001600160a01b038216610db05760405162461bcd60e51b815260206004820181905260248201527f4552433732313a206d696e7420746f20746865207a65726f20616464726573736044820152606401610431565b6000818152600260205260409020546001600160a01b031615610e155760405162461bcd60e51b815260206004820152601c60248201527f4552433732313a20746f6b656e20616c7265616479206d696e746564000000006044820152606401610431565b6000818152600260205260409020546001600160a01b031615610e7a5760405162461bcd60e51b815260206004820152601c60248201527f4552433732313a20746f6b656e20616c7265616479206d696e746564000000006044820152606401610431565b6001600160a01b038216600081815260036020908152604080832080546001019055848352600290915280822080546001600160a01b0319168417905551839291907fddf252ad1be2c89b69c2b068fc378daa952ba7f163c4a11628f55a4df523b3ef908290a45050565b6000805b600754811015610f3b57826006600060078481548110610f0b57610f0b611780565b90600052602060002001548152602001908152602001600020541015610f3357809150610f3b565b600101610ee9565b50600754600090610f4e90600190611d56565b90505b81811115610fb2576007610f66600183611d56565b81548110610f7657610f76611780565b906000526020600020015460078281548110610f9457610f94611780565b60009182526020909120015580610faa81611d69565b915050610f51565b508260078281548110610fc757610fc7611780565b600091825260209091200155505050565b60606000610fe5836112d1565b600101905060008167ffffffffffffffff81111561100557611005611538565b6040519080825280601f01601f19166020018201604052801561102f576020820181803683370190505b5090508181016020015b600019016f181899199a1a9b1b9c1cb0b131b232b360811b600a86061a8153600a850494508461103957509392505050565b6060815160000361108a57505060408051602081019091526000815290565b6000604051806060016040528060408152602001611e2760409139905060006003845160026110b99190611d80565b6110c39190611d93565b6110ce906004611db5565b905060006110dd826020611d80565b67ffffffffffffffff8111156110f5576110f5611538565b6040519080825280601f01601f19166020018201604052801561111f576020820181803683370190505b509050818152600183018586518101602084015b8183101561118b576003830192508251603f8160121c168501518253600182019150603f81600c1c168501518253600182019150603f8160061c168501518253600182019150603f8116850151825350600101611133565b6003895106600181146111a557600281146111b6576111c2565b613d3d60f01b6001198301526111c2565b603d60f81b6000198301525b509398975050505050505050565b60006001600160a01b0384163b156112c657604051630a85bd0160e11b81526001600160a01b0385169063150b7a0290611214903390899088908890600401611dcc565b6020604051808303816000875af192505050801561124f575060408051601f3d908101601f1916820190925261124c91810190611e09565b60015b6112ac573d80801561127d576040519150601f19603f3d011682016040523d82523d6000602084013e611282565b606091505b5080516000036112a45760405162461bcd60e51b815260040161043190611cee565b805181602001fd5b6001600160e01b031916630a85bd0160e11b149050610a58565b506001949350505050565b60008072184f03e93ff9f4daa797ed6e38ed64bf6a1f0160401b83106113105772184f03e93ff9f4daa797ed6e38ed64bf6a1f0160401b830492506040015b6d04ee2d6d415b85acef8100000000831061133c576d04ee2d6d415b85acef8100000000830492506020015b662386f26fc10000831061135a57662386f26fc10000830492506010015b6305f5e1008310611372576305f5e100830492506008015b612710831061138657612710830492506004015b60648310611398576064830492506002015b600a83106102fe5760010192915050565b6001600160e01b03198116811461055257600080fd5b6000602082840312156113d157600080fd5b81356113dc816113a9565b9392505050565b60005b838110156113fe5781810151838201526020016113e6565b50506000910152565b6000815180845261141f8160208601602086016113e3565b601f01601f19169290920160200192915050565b6020815260006113dc6020830184611407565b60006020828403121561145857600080fd5b5035919050565b80356001600160a01b038116811461147657600080fd5b919050565b6000806040838503121561148e57600080fd5b6114978361145f565b946020939093013593505050565b6000806000606084860312156114ba57600080fd5b6114c38461145f565b92506114d16020850161145f565b9150604084013590509250925092565b6000602082840312156114f357600080fd5b6113dc8261145f565b6000806040838503121561150f57600080fd5b6115188361145f565b91506020830135801515811461152d57600080fd5b809150509250929050565b634e487b7160e01b600052604160045260246000fd5b600082601f83011261155f57600080fd5b813567ffffffffffffffff8082111561157a5761157a611538565b604051601f8301601f19908116603f011681019082821181831017156115a2576115a2611538565b816040528381528660208588010111156115bb57600080fd5b836020870160208301376000602085830101528094505050505092915050565b600080600080608085870312156115f157600080fd5b6115fa8561145f565b93506116086020860161145f565b925060408501359150606085013567ffffffffffffffff81111561162b57600080fd5b6116378782880161154e565b91505092959194509250565b60008060006060848603121561165857600080fd5b6116618461145f565b95602085013595506040909401359392505050565b6000806040838503121561168957600080fd5b6116928361145f565b91506116a06020840161145f565b90509250929050565b6000806000606084860312156116be57600080fd5b8335925060208401359150604084013567ffffffffffffffff8111156116e357600080fd5b6116ef8682870161154e565b9150509250925092565b600181811c9082168061170d57607f821691505b60208210810361172d57634e487b7160e01b600052602260045260246000fd5b50919050565b6020808252602d908201527f4552433732313a2063616c6c6572206973206e6f7420746f6b656e206f776e6560408201526c1c881bdc88185c1c1c9bdd9959609a1b606082015260800190565b634e487b7160e01b600052603260045260246000fd5b600081516117a88185602086016113e3565b9290920192915050565b737b226e616d65223a22506967677962616e6b202360601b815282516000906117e28160148501602088016113e3565b61088b60f21b6014918401918201527f226465736372697074696f6e223a22506967677962616e6b7320617265204e4660168201527f54206f776e6564206163636f756e74732028363535312920746861742061636360368201527f6570742045544820616e64206f6e6c792072657475726e206974207768656e2060568201527f6275726e65642e204275726e6564204e465473206172652073656e7420746f2060768201527f7468656972206f776e2036353531206164647265737365732c206d616b696e67609682015267081d1a195b48088b60c21b60b68201527f2261747472696275746573223a5b7b2274726169745f74797065223a2253636f60be8201526c39329116113b30b63ab2911d1160991b60de82015261198761195261190f60eb840187611796565b7f20455448227d2c7b2274726169745f74797065223a22537461747573222c2276815270185b1d59488e88915e1a5cdd1cc89f574b607a1b602082015260310190565b7f22696d616765223a22646174613a696d6167652f7376672b786d6c3b626173658152620d8d0b60ea1b602082015260230190565b95945050505050565b7f3c7376672077696474683d223130303022206865696768743d2231303030222081527f76696577426f783d22302030203130303020313030302220786d6c6e733d226860208201527f7474703a2f2f7777772e77332e6f72672f323030302f737667223e000000000060408201527f3c726563742077696474683d223130303022206865696768743d223130303022605b8201526a040ccd2d8d87a44d0e6d8560ab1b607b82015260008351611a4e8160868501602088016113e3565b6d16101b9c1296101a9b129491179f60911b6086918401918201527f3c7465787420783d2238302220793d22323736222066696c6c3d22776869746560948201527f2220666f6e742d66616d696c793d2248656c7665746963612220666f6e742d7360b48201527f697a653d223133302220666f6e742d7765696768743d22626f6c64223e00000060d4820152611987611c25611b08611c1f611baa611b90611b1b8460f18901667a6b536e616b6560c81b815260070190565b661e17ba32bc3a1f60c91b815260070190565b7f3c7465787420783d2238302220793d22343235222066696c6c3d22776869746581527f2220666f6e742d66616d696c793d2248656c7665746963612220666f6e742d7360208201527f697a653d223133302220666f6e742d7765696768743d22626f6c64223e0000006040820152605d0190565b6d1039b1b7b932901e17ba32bc3a1f60911b8152600e0190565b7f3c7465787420783d2238302220793d22353734222066696c6c3d22776869746581527f2220666f6e742d66616d696c793d2248656c7665746963612220666f6e742d7360208201527f697a653d223133302220666f6e742d7765696768743d22626f6c64223e0000006040820152605d0190565b87611796565b651e17b9bb339f60d11b815260060190565b60008451611c498184602089016113e3565b845190830190611c5d8183602089016113e3565b8451910190611c708183602088016113e3565b0195945050505050565b60008351611c8c8184602088016113e3565b835190830190611ca08183602088016113e3565b01949350505050565b60208082526025908201527f4552433732313a207472616e736665722066726f6d20696e636f72726563742060408201526437bbb732b960d91b606082015260800190565b60208082526032908201527f4552433732313a207472616e7366657220746f206e6f6e20455243373231526560408201527131b2b4bb32b91034b6b83632b6b2b73a32b960711b606082015260800190565b634e487b7160e01b600052601160045260246000fd5b818103818111156102fe576102fe611d40565b600081611d7857611d78611d40565b506000190190565b808201808211156102fe576102fe611d40565b600082611db057634e487b7160e01b600052601260045260246000fd5b500490565b80820281158282048414176102fe576102fe611d40565b6001600160a01b0385811682528416602082015260408101839052608060608201819052600090611dff90830184611407565b9695505050505050565b600060208284031215611e1b57600080fd5b81516113dc816113a956fe4142434445464748494a4b4c4d4e4f505152535455565758595a6162636465666768696a6b6c6d6e6f707172737475767778797a303132333435363738392b2fa2646970667358221220e86e1dc5d4bfe4fc826a1776705d40597eb264ff5acfa379a5e5ce854156b9ee64736f6c63430008180033","linkReferences":{}},"methodIdentifiers":{"approve(address,uint256)":"095ea7b3","balanceOf(address)":"70a08231","burn(uint256)":"42966c68","getApproved(uint256)":"081812fc","isApprovedForAll(address,address)":"e985e9c5","mintByAuthority(address,uint256,uint256)":"c4808c5b","name()":"06fdde03","ownerOf(uint256)":"6352211e","safeTransferFrom(address,address,uint256)":"42842e0e","safeTransferFrom(address,address,uint256,bytes)":"b88d4fde","scores(uint256)":"2ee691a3","setApprovalForAll(address,bool)":"a22cb465","submitScore(uint256,uint256,bytes)":"f2c0a29a","supportsInterface(bytes4)":"01ffc9a7","symbol()":"95d89b41","tokenURI(uint256)":"c87b56dd","topScores(uint256)":"5112711a","transferFrom(address,address,uint256)":"23b872dd"},"id":3}